{
  "_format": "hh-sol-artifact-1",
  "contractName": "Transactions",
  "sourceName": "contracts/Transaction.sol",
  "abi": [
    {
      "anonymous": false,
      "inputs": [
        {
          "indexed": true,
          "internalType": "uint256",
          "name": "scheduleId",
          "type": "uint256"
        },
        {
          "indexed": true,
          "internalType": "address",
          "name": "from",
          "type": "address"
        }
      ],
      "name": "ScheduledTransactionCancelled",
      "type": "event"
    },
    {
      "anonymous": false,
      "inputs": [
        {
          "indexed": true,
          "internalType": "uint256",
          "name": "scheduleId",
          "type": "uint256"
        },
        {
          "indexed": true,
          "internalType": "address",
          "name": "from",
          "type": "address"
        },
        {
          "indexed": true,
          "internalType": "address",
          "name": "receiver",
          "type": "address"
        },
        {
          "indexed": false,
          "internalType": "uint256",
          "name": "amount",
          "type": "uint256"
        },
        {
          "indexed": false,
          "internalType": "string",
          "name": "message",
          "type": "string"
        },
        {
          "indexed": false,
          "internalType": "uint256",
          "name": "scheduledTime",
          "type": "uint256"
        }
      ],
      "name": "ScheduledTransactionCreated",
      "type": "event"
    },
    {
      "anonymous": false,
      "inputs": [
        {
          "indexed": true,
          "internalType": "uint256",
          "name": "scheduleId",
          "type": "uint256"
        },
        {
          "indexed": true,
          "internalType": "address",
          "name": "from",
          "type": "address"
        },
        {
          "indexed": true,
          "internalType": "address",
          "name": "receiver",
          "type": "address"
        },
        {
          "indexed": false,
          "internalType": "uint256",
          "name": "amount",
          "type": "uint256"
        },
        {
          "indexed": false,
          "internalType": "string",
          "name": "message",
          "type": "string"
        },
        {
          "indexed": false,
          "internalType": "uint256",
          "name": "executedTime",
          "type": "uint256"
        }
      ],
      "name": "ScheduledTransactionExecuted",
      "type": "event"
    },
    {
      "anonymous": false,
      "inputs": [
        {
          "indexed": true,
          "internalType": "address",
          "name": "from",
          "type": "address"
        },
        {
          "indexed": true,
          "internalType": "address",
          "name": "receiver",
          "type": "address"
        },
        {
          "indexed": false,
          "internalType": "uint256",
          "name": "amount",
          "type": "uint256"
        },
        {
          "indexed": false,
          "internalType": "string",
          "name": "message",
          "type": "string"
        },
        {
          "indexed": false,
          "internalType": "uint256",
          "name": "timestamp",
          "type": "uint256"
        },
        {
          "indexed": false,
          "internalType": "bool",
          "name": "isScheduled",
          "type": "bool"
        }
      ],
      "name": "Transfer",
      "type": "event"
    },
    {
      "stateMutability": "payable",
      "type": "fallback"
    },
    {
      "inputs": [
        {
          "internalType": "address payable",
          "name": "receiver",
          "type": "address"
        },
        {
          "internalType": "uint256",
          "name": "amount",
          "type": "uint256"
        },
        {
          "internalType": "string",
          "name": "message",
          "type": "string"
        }
      ],
      "name": "addToBlockchain",
      "outputs": [],
      "stateMutability": "payable",
      "type": "function"
    },
    {
      "inputs": [
        {
          "internalType": "uint256",
          "name": "scheduleId",
          "type": "uint256"
        }
      ],
      "name": "cancelScheduledTransaction",
      "outputs": [],
      "stateMutability": "nonpayable",
      "type": "function"
    },
    {
      "inputs": [
        {
          "internalType": "uint256",
          "name": "scheduleId",
          "type": "uint256"
        }
      ],
      "name": "executeScheduledTransaction",
      "outputs": [],
      "stateMutability": "nonpayable",
      "type": "function"
    },
    {
      "inputs": [
        {
          "internalType": "uint256",
          "name": "",
          "type": "uint256"
        }
      ],
      "name": "executedScheduledTransactions",
      "outputs": [
        {
          "internalType": "bool",
          "name": "",
          "type": "bool"
        }
      ],
      "stateMutability": "view",
      "type": "function"
    },
    {
      "inputs": [],
      "name": "getAllScheduledTransactions",
      "outputs": [
        {
          "components": [
            {
              "internalType": "uint256",
              "name": "id",
              "type": "uint256"
            },
            {
              "internalType": "address",
              "name": "sender",
              "type": "address"
            },
            {
              "internalType": "address",
              "name": "receiver",
              "type": "address"
            },
            {
              "internalType": "uint256",
              "name": "amount",
              "type": "uint256"
            },
            {
              "internalType": "string",
              "name": "message",
              "type": "string"
            },
            {
              "internalType": "uint256",
              "name": "scheduledTime",
              "type": "uint256"
            },
            {
              "internalType": "bool",
              "name": "isExecuted",
              "type": "bool"
            },
            {
              "internalType": "bool",
              "name": "isCancelled",
              "type": "bool"
            },
            {
              "internalType": "uint256",
              "name": "createdAt",
              "type": "uint256"
            }
          ],
          "internalType": "struct Transactions.ScheduledTransactionStruct[]",
          "name": "",
          "type": "tuple[]"
        }
      ],
      "stateMutability": "view",
      "type": "function"
    },
    {
      "inputs": [],
      "name": "getAllTransactions",
      "outputs": [
        {
          "components": [
            {
              "internalType": "address",
              "name": "sender",
              "type": "address"
            },
            {
              "internalType": "address",
              "name": "receiver",
              "type": "address"
            },
            {
              "internalType": "uint256",
              "name": "amount",
              "type": "uint256"
            },
            {
              "internalType": "string",
              "name": "message",
              "type": "string"
            },
            {
              "internalType": "uint256",
              "name": "timestamp",
              "type": "uint256"
            },
            {
              "internalType": "bool",
              "name": "isScheduled",
              "type": "bool"
            },
            {
              "internalType": "bool",
              "name": "isExecuted",
              "type": "bool"
            }
          ],
          "internalType": "struct Transactions.TransferStruct[]",
          "name": "",
          "type": "tuple[]"
        }
      ],
      "stateMutability": "view",
      "type": "function"
    },
    {
      "inputs": [],
      "name": "getContractBalance",
      "outputs": [
        {
          "internalType": "uint256",
          "name": "",
          "type": "uint256"
        }
      ],
      "stateMutability": "view",
      "type": "function"
    },
    {
      "inputs": [],
      "name": "getExecutableTransactions",
      "outputs": [
        {
          "components": [
            {
              "internalType": "uint256",
              "name": "id",
              "type": "uint256"
            },
            {
              "internalType": "address",
              "name": "sender",
              "type": "address"
            },
            {
              "internalType": "address",
              "name": "receiver",
              "type": "address"
            },
            {
              "internalType": "uint256",
              "name": "amount",
              "type": "uint256"
            },
            {
              "internalType": "string",
              "name": "message",
              "type": "string"
            },
            {
              "internalType": "uint256",
              "name": "scheduledTime",
              "type": "uint256"
            },
            {
              "internalType": "bool",
              "name": "isExecuted",
              "type": "bool"
            },
            {
              "internalType": "bool",
              "name": "isCancelled",
              "type": "bool"
            },
            {
              "internalType": "uint256",
              "name": "createdAt",
              "type": "uint256"
            }
          ],
          "internalType": "struct Transactions.ScheduledTransactionStruct[]",
          "name": "",
          "type": "tuple[]"
        }
      ],
      "stateMutability": "view",
      "type": "function"
    },
    {
      "inputs": [],
      "name": "getPendingScheduledTransactions",
      "outputs": [
        {
          "components": [
            {
              "internalType": "uint256",
              "name": "id",
              "type": "uint256"
            },
            {
              "internalType": "address",
              "name": "sender",
              "type": "address"
            },
            {
              "internalType": "address",
              "name": "receiver",
              "type": "address"
            },
            {
              "internalType": "uint256",
              "name": "amount",
              "type": "uint256"
            },
            {
              "internalType": "string",
              "name": "message",
              "type": "string"
            },
            {
              "internalType": "uint256",
              "name": "scheduledTime",
              "type": "uint256"
            },
            {
              "internalType": "bool",
              "name": "isExecuted",
              "type": "bool"
            },
            {
              "internalType": "bool",
              "name": "isCancelled",
              "type": "bool"
            },
            {
              "internalType": "uint256",
              "name": "createdAt",
              "type": "uint256"
            }
          ],
          "internalType": "struct Transactions.ScheduledTransactionStruct[]",
          "name": "",
          "type": "tuple[]"
        }
      ],
      "stateMutability": "view",
      "type": "function"
    },
    {
      "inputs": [],
      "name": "getScheduledTransactionCount",
      "outputs": [
        {
          "internalType": "uint256",
          "name": "",
          "type": "uint256"
        }
      ],
      "stateMutability": "view",
      "type": "function"
    },
    {
      "inputs": [],
      "name": "getTransactionCount",
      "outputs": [
        {
          "internalType": "uint256",
          "name": "",
          "type": "uint256"
        }
      ],
      "stateMutability": "view",
      "type": "function"
    },
    {
      "inputs": [
        {
          "internalType": "address",
          "name": "user",
          "type": "address"
        }
      ],
      "name": "getUserScheduledTransactions",
      "outputs": [
        {
          "components": [
            {
              "internalType": "uint256",
              "name": "id",
              "type": "uint256"
            },
            {
              "internalType": "address",
              "name": "sender",
              "type": "address"
            },
            {
              "internalType": "address",
              "name": "receiver",
              "type": "address"
            },
            {
              "internalType": "uint256",
              "name": "amount",
              "type": "uint256"
            },
            {
              "internalType": "string",
              "name": "message",
              "type": "string"
            },
            {
              "internalType": "uint256",
              "name": "scheduledTime",
              "type": "uint256"
            },
            {
              "internalType": "bool",
              "name": "isExecuted",
              "type": "bool"
            },
            {
              "internalType": "bool",
              "name": "isCancelled",
              "type": "bool"
            },
            {
              "internalType": "uint256",
              "name": "createdAt",
              "type": "uint256"
            }
          ],
          "internalType": "struct Transactions.ScheduledTransactionStruct[]",
          "name": "",
          "type": "tuple[]"
        }
      ],
      "stateMutability": "view",
      "type": "function"
    },
    {
      "inputs": [
        {
          "internalType": "address payable",
          "name": "receiver",
          "type": "address"
        },
        {
          "internalType": "uint256",
          "name": "amount",
          "type": "uint256"
        },
        {
          "internalType": "string",
          "name": "message",
          "type": "string"
        },
        {
          "internalType": "uint256",
          "name": "scheduledTime",
          "type": "uint256"
        }
      ],
      "name": "scheduleTransaction",
      "outputs": [],
      "stateMutability": "payable",
      "type": "function"
    },
    {
      "inputs": [],
      "name": "scheduledTransactionCount",
      "outputs": [
        {
          "internalType": "uint256",
          "name": "",
          "type": "uint256"
        }
      ],
      "stateMutability": "view",
      "type": "function"
    },
    {
      "inputs": [
        {
          "internalType": "uint256",
          "name": "",
          "type": "uint256"
        }
      ],
      "name": "scheduledTransactions",
      "outputs": [
        {
          "internalType": "uint256",
          "name": "id",
          "type": "uint256"
        },
        {
          "internalType": "address",
          "name": "sender",
          "type": "address"
        },
        {
          "internalType": "address",
          "name": "receiver",
          "type": "address"
        },
        {
          "internalType": "uint256",
          "name": "amount",
          "type": "uint256"
        },
        {
          "internalType": "string",
          "name": "message",
          "type": "string"
        },
        {
          "internalType": "uint256",
          "name": "scheduledTime",
          "type": "uint256"
        },
        {
          "internalType": "bool",
          "name": "isExecuted",
          "type": "bool"
        },
        {
          "internalType": "bool",
          "name": "isCancelled",
          "type": "bool"
        },
        {
          "internalType": "uint256",
          "name": "createdAt",
          "type": "uint256"
        }
      ],
      "stateMutability": "view",
      "type": "function"
    },
    {
      "inputs": [],
      "name": "transactionCount",
      "outputs": [
        {
          "internalType": "uint256",
          "name": "",
          "type": "uint256"
        }
      ],
      "stateMutability": "view",
      "type": "function"
    },
    {
      "inputs": [
        {
          "internalType": "uint256",
          "name": "",
          "type": "uint256"
        }
      ],
      "name": "transactions",
      "outputs": [
        {
          "internalType": "address",
          "name": "sender",
          "type": "address"
        },
        {
          "internalType": "address",
          "name": "receiver",
          "type": "address"
        },
        {
          "internalType": "uint256",
          "name": "amount",
          "type": "uint256"
        },
        {
          "internalType": "string",
          "name": "message",
          "type": "string"
        },
        {
          "internalType": "uint256",
          "name": "timestamp",
          "type": "uint256"
        },
        {
          "internalType": "bool",
          "name": "isScheduled",
          "type": "bool"
        },
        {
          "internalType": "bool",
          "name": "isExecuted",
          "type": "bool"
        }
      ],
      "stateMutability": "view",
      "type": "function"
    },
    {
      "inputs": [
        {
          "internalType": "address",
          "name": "",
          "type": "address"
        },
        {
          "internalType": "uint256",
          "name": "",
          "type": "uint256"
        }
      ],
      "name": "userScheduledTransactions",
      "outputs": [
        {
          "internalType": "uint256",
          "name": "",
          "type": "uint256"
        }
      ],
      "stateMutability": "view",
      "type": "function"
    },
    {
      "stateMutability": "payable",
      "type": "receive"
    }
  ],
  "bytecode": "0x608060405234801561001057600080fd5b50613a4e806100206000396000f3fe60806040526004361061010d5760003560e01c8063853f90e411610095578063b77bf60011610064578063b77bf6001461038a578063c11b15ca146103b5578063cc38cf38146103de578063eb12da4a1461041b578063efc6331f1461043757610114565b8063853f90e4146102c35780639ace38c2146103005780639c23c96a14610343578063aac2ccad1461035f57610114565b80632e7700f0116100dc5780632e7700f0146101c05780634da5a16d146101eb57806357c57724146102165780636f9fb98a14610253578063830009791461027e57610114565b80631df74d38146101165780631f29c0601461014157806327506f531461016c5780632774ad8e1461019757610114565b3661011457005b005b34801561012257600080fd5b5061012b610462565b6040516101389190613351565b60405180910390f35b34801561014d57600080fd5b506101566109b7565b60405161016391906134f0565b60405180910390f35b34801561017857600080fd5b506101816109c1565b60405161018e9190613373565b60405180910390f35b3480156101a357600080fd5b506101be60048036038101906101b99190612bdb565b610ba8565b005b3480156101cc57600080fd5b506101d5610eb4565b6040516101e291906134f0565b60405180910390f35b3480156101f757600080fd5b50610200610ebd565b60405161020d9190613351565b60405180910390f35b34801561022257600080fd5b5061023d60048036038101906102389190612bdb565b611364565b60405161024a9190613395565b60405180910390f35b34801561025f57600080fd5b50610268611384565b60405161027591906134f0565b60405180910390f35b34801561028a57600080fd5b506102a560048036038101906102a09190612bdb565b61138c565b6040516102ba9998979695949392919061350b565b60405180910390f35b3480156102cf57600080fd5b506102ea60048036038101906102e59190612b9f565b6114cc565b6040516102f791906134f0565b60405180910390f35b34801561030c57600080fd5b5061032760048036038101906103229190612bdb565b6114fd565b60405161033a97969594939291906132db565b60405180910390f35b61035d60048036038101906103589190612b24565b611631565b005b34801561036b57600080fd5b506103746119cf565b6040516103819190613351565b60405180910390f35b34801561039657600080fd5b5061039f611bcb565b6040516103ac91906134f0565b60405180910390f35b3480156103c157600080fd5b506103dc60048036038101906103d79190612bdb565b611bd1565b005b3480156103ea57600080fd5b5061040560048036038101906104009190612a94565b612203565b6040516104129190613351565b60405180910390f35b61043560048036038101906104309190612abd565b6125b4565b005b34801561044357600080fd5b5061044c6128c8565b60405161045991906134f0565b60405180910390f35b60606000805b6003805490508110156105af57600381815481106104af577f4e487b7100000000000000000000000000000000000000000000000000000000600052603260045260246000fd5b906000526020600020906008020160060160009054906101000a900460ff16158015610531575060038181548110610510577f4e487b7100000000000000000000000000000000000000000000000000000000600052603260045260246000fd5b906000526020600020906008020160060160019054906101000a900460ff16155b8015610588575060038181548110610572577f4e487b7100000000000000000000000000000000000000000000000000000000600052603260045260246000fd5b9060005260206000209060080201600501544210155b1561059c578180610598906138ec565b9250505b80806105a7906138ec565b915050610468565b5060008167ffffffffffffffff8111156105f2577f4e487b7100000000000000000000000000000000000000000000000000000000600052604160045260246000fd5b60405190808252806020026020018201604052801561062b57816020015b6106186128ce565b8152602001906001900390816106105790505b5090506000805b6003805490508110156109ad5760038181548110610679577f4e487b7100000000000000000000000000000000000000000000000000000000600052603260045260246000fd5b906000526020600020906008020160060160009054906101000a900460ff161580156106fb5750600381815481106106da577f4e487b7100000000000000000000000000000000000000000000000000000000600052603260045260246000fd5b906000526020600020906008020160060160019054906101000a900460ff16155b801561075257506003818154811061073c577f4e487b7100000000000000000000000000000000000000000000000000000000600052603260045260246000fd5b9060005260206000209060080201600501544210155b1561099a5760038181548110610791577f4e487b7100000000000000000000000000000000000000000000000000000000600052603260045260246000fd5b906000526020600020906008020160405180610120016040529081600082015481526020016001820160009054906101000a900473ffffffffffffffffffffffffffffffffffffffff1673ffffffffffffffffffffffffffffffffffffffff1673ffffffffffffffffffffffffffffffffffffffff1681526020016002820160009054906101000a900473ffffffffffffffffffffffffffffffffffffffff1673ffffffffffffffffffffffffffffffffffffffff1673ffffffffffffffffffffffffffffffffffffffff1681526020016003820154815260200160048201805461087b906138ba565b80601f01602080910402602001604051908101604052809291908181526020018280546108a7906138ba565b80156108f45780601f106108c9576101008083540402835291602001916108f4565b820191906000526020600020905b8154815290600101906020018083116108d757829003601f168201915b50505050508152602001600582015481526020016006820160009054906101000a900460ff161515151581526020016006820160019054906101000a900460ff16151515158152602001600782015481525050838381518110610980577f4e487b7100000000000000000000000000000000000000000000000000000000600052603260045260246000fd5b60200260200101819052508180610996906138ec565b9250505b80806109a5906138ec565b915050610632565b5081935050505090565b6000600154905090565b60606002805480602002602001604051908101604052809291908181526020016000905b82821015610b9f57838290600052602060002090600602016040518060e00160405290816000820160009054906101000a900473ffffffffffffffffffffffffffffffffffffffff1673ffffffffffffffffffffffffffffffffffffffff1673ffffffffffffffffffffffffffffffffffffffff1681526020016001820160009054906101000a900473ffffffffffffffffffffffffffffffffffffffff1673ffffffffffffffffffffffffffffffffffffffff1673ffffffffffffffffffffffffffffffffffffffff16815260200160028201548152602001600382018054610ace906138ba565b80601f0160208091040260200160405190810160405280929190818152602001828054610afa906138ba565b8015610b475780601f10610b1c57610100808354040283529160200191610b47565b820191906000526020600020905b815481529060010190602001808311610b2a57829003601f168201915b50505050508152602001600482015481526020016005820160009054906101000a900460ff161515151581526020016005820160019054906101000a900460ff161515151581525050815260200190600101906109e5565b50505050905090565b806003805490508110610bf0576040517f08c379a0000000000000000000000000000000000000000000000000000000008152600401610be7906134d0565b60405180910390fd5b813373ffffffffffffffffffffffffffffffffffffffff1660038281548110610c42577f4e487b7100000000000000000000000000000000000000000000000000000000600052603260045260246000fd5b906000526020600020906008020160010160009054906101000a900473ffffffffffffffffffffffffffffffffffffffff1673ffffffffffffffffffffffffffffffffffffffff1614610cca576040517f08c379a0000000000000000000000000000000000000000000000000000000008152600401610cc1906133d0565b60405180910390fd5b600060038481548110610d06577f4e487b7100000000000000000000000000000000000000000000000000000000600052603260045260246000fd5b906000526020600020906008020190508060060160009054906101000a900460ff1615610d68576040517f08c379a0000000000000000000000000000000000000000000000000000000008152600401610d5f906134b0565b60405180910390fd5b8060060160019054906101000a900460ff1615610dba576040517f08c379a0000000000000000000000000000000000000000000000000000000008152600401610db190613490565b60405180910390fd5b60018160060160016101000a81548160ff0219169083151502179055508060010160009054906101000a900473ffffffffffffffffffffffffffffffffffffffff1673ffffffffffffffffffffffffffffffffffffffff166108fc82600301549081150290604051600060405180830381858888f19350505050158015610e45573d6000803e3d6000fd5b508060010160009054906101000a900473ffffffffffffffffffffffffffffffffffffffff1673ffffffffffffffffffffffffffffffffffffffff16847f9dc2f0afd04ada72e1f6d7e5e2c449ee31e833d006db0ca5b7e8f284e83f8a1d60405160405180910390a350505050565b60008054905090565b60606000805b600380549050811015610fb35760038181548110610f0a577f4e487b7100000000000000000000000000000000000000000000000000000000600052603260045260246000fd5b906000526020600020906008020160060160009054906101000a900460ff16158015610f8c575060038181548110610f6b577f4e487b7100000000000000000000000000000000000000000000000000000000600052603260045260246000fd5b906000526020600020906008020160060160019054906101000a900460ff16155b15610fa0578180610f9c906138ec565b9250505b8080610fab906138ec565b915050610ec3565b5060008167ffffffffffffffff811115610ff6577f4e487b7100000000000000000000000000000000000000000000000000000000600052604160045260246000fd5b60405190808252806020026020018201604052801561102f57816020015b61101c6128ce565b8152602001906001900390816110145790505b5090506000805b60038054905081101561135a576003818154811061107d577f4e487b7100000000000000000000000000000000000000000000000000000000600052603260045260246000fd5b906000526020600020906008020160060160009054906101000a900460ff161580156110ff5750600381815481106110de577f4e487b7100000000000000000000000000000000000000000000000000000000600052603260045260246000fd5b906000526020600020906008020160060160019054906101000a900460ff16155b15611347576003818154811061113e577f4e487b7100000000000000000000000000000000000000000000000000000000600052603260045260246000fd5b906000526020600020906008020160405180610120016040529081600082015481526020016001820160009054906101000a900473ffffffffffffffffffffffffffffffffffffffff1673ffffffffffffffffffffffffffffffffffffffff1673ffffffffffffffffffffffffffffffffffffffff1681526020016002820160009054906101000a900473ffffffffffffffffffffffffffffffffffffffff1673ffffffffffffffffffffffffffffffffffffffff1673ffffffffffffffffffffffffffffffffffffffff16815260200160038201548152602001600482018054611228906138ba565b80601f0160208091040260200160405190810160405280929190818152602001828054611254906138ba565b80156112a15780601f10611276576101008083540402835291602001916112a1565b820191906000526020600020905b81548152906001019060200180831161128457829003601f168201915b50505050508152602001600582015481526020016006820160009054906101000a900460ff161515151581526020016006820160019054906101000a900460ff1615151515815260200160078201548152505083838151811061132d577f4e487b7100000000000000000000000000000000000000000000000000000000600052603260045260246000fd5b60200260200101819052508180611343906138ec565b9250505b8080611352906138ec565b915050611036565b5081935050505090565b60056020528060005260406000206000915054906101000a900460ff1681565b600047905090565b6003818154811061139c57600080fd5b90600052602060002090600802016000915090508060000154908060010160009054906101000a900473ffffffffffffffffffffffffffffffffffffffff16908060020160009054906101000a900473ffffffffffffffffffffffffffffffffffffffff1690806003015490806004018054611417906138ba565b80601f0160208091040260200160405190810160405280929190818152602001828054611443906138ba565b80156114905780601f1061146557610100808354040283529160200191611490565b820191906000526020600020905b81548152906001019060200180831161147357829003601f168201915b5050505050908060050154908060060160009054906101000a900460ff16908060060160019054906101000a900460ff16908060070154905089565b600460205281600052604060002081815481106114e857600080fd5b90600052602060002001600091509150505481565b6002818154811061150d57600080fd5b90600052602060002090600602016000915090508060000160009054906101000a900473ffffffffffffffffffffffffffffffffffffffff16908060010160009054906101000a900473ffffffffffffffffffffffffffffffffffffffff1690806002015490806003018054611582906138ba565b80601f01602080910402602001604051908101604052809291908181526020018280546115ae906138ba565b80156115fb5780601f106115d0576101008083540402835291602001916115fb565b820191906000526020600020905b8154815290600101906020018083116115de57829003601f168201915b5050505050908060040154908060050160009054906101000a900460ff16908060050160019054906101000a900460ff16905087565b600073ffffffffffffffffffffffffffffffffffffffff168473ffffffffffffffffffffffffffffffffffffffff1614156116a1576040517f08c379a000000000000000000000000000000000000000000000000000000000815260040161169890613470565b60405180910390fd5b4281116116e3576040517f08c379a00000000000000000000000000000000000000000000000000000000081526004016116da906133b0565b60405180910390fd5b823414611725576040517f08c379a000000000000000000000000000000000000000000000000000000000815260040161171c90613430565b60405180910390fd5b60006001549050600180600082825461173e91906137c8565b9250508190555060036040518061012001604052808381526020013373ffffffffffffffffffffffffffffffffffffffff1681526020018773ffffffffffffffffffffffffffffffffffffffff1681526020018681526020018581526020018481526020016000151581526020016000151581526020014281525090806001815401808255809150506001900390600052602060002090600802016000909190919091506000820151816000015560208201518160010160006101000a81548173ffffffffffffffffffffffffffffffffffffffff021916908373ffffffffffffffffffffffffffffffffffffffff16021790555060408201518160020160006101000a81548173ffffffffffffffffffffffffffffffffffffffff021916908373ffffffffffffffffffffffffffffffffffffffff1602179055506060820151816003015560808201518160040190805190602001906118a092919061294a565b5060a0820151816005015560c08201518160060160006101000a81548160ff02191690831515021790555060e08201518160060160016101000a81548160ff02191690831515021790555061010082015181600701555050600460003373ffffffffffffffffffffffffffffffffffffffff1673ffffffffffffffffffffffffffffffffffffffff1681526020019081526020016000208190806001815401808255809150506001900390600052602060002001600090919091909150558473ffffffffffffffffffffffffffffffffffffffff163373ffffffffffffffffffffffffffffffffffffffff16827f6f5ede700344aa6bab728ca508406a8fc94379eb84f30bff5e0911d90a5a7fae8787876040516119c09392919061359f565b60405180910390a45050505050565b60606003805480602002602001604051908101604052809291908181526020016000905b82821015611bc2578382906000526020600020906008020160405180610120016040529081600082015481526020016001820160009054906101000a900473ffffffffffffffffffffffffffffffffffffffff1673ffffffffffffffffffffffffffffffffffffffff1673ffffffffffffffffffffffffffffffffffffffff1681526020016002820160009054906101000a900473ffffffffffffffffffffffffffffffffffffffff1673ffffffffffffffffffffffffffffffffffffffff1673ffffffffffffffffffffffffffffffffffffffff16815260200160038201548152602001600482018054611ae7906138ba565b80601f0160208091040260200160405190810160405280929190818152602001828054611b13906138ba565b8015611b605780601f10611b3557610100808354040283529160200191611b60565b820191906000526020600020905b815481529060010190602001808311611b4357829003601f168201915b50505050508152602001600582015481526020016006820160009054906101000a900460ff161515151581526020016006820160019054906101000a900460ff16151515158152602001600782015481525050815260200190600101906119f3565b50505050905090565b60005481565b806003805490508110611c19576040517f08c379a0000000000000000000000000000000000000000000000000000000008152600401611c10906134d0565b60405180910390fd5b600060038381548110611c55577f4e487b7100000000000000000000000000000000000000000000000000000000600052603260045260246000fd5b906000526020600020906008020190508060060160009054906101000a900460ff1615611cb7576040517f08c379a0000000000000000000000000000000000000000000000000000000008152600401611cae906133f0565b60405180910390fd5b8060060160019054906101000a900460ff1615611d09576040517f08c379a0000000000000000000000000000000000000000000000000000000008152600401611d0090613410565b60405180910390fd5b8060050154421015611d50576040517f08c379a0000000000000000000000000000000000000000000000000000000008152600401611d4790613450565b60405180910390fd5b60018160060160006101000a81548160ff02191690831515021790555060016005600085815260200190815260200160002060006101000a81548160ff0219169083151502179055506001600080828254611dab91906137c8565b9250508190555060026040518060e001604052808360010160009054906101000a900473ffffffffffffffffffffffffffffffffffffffff1673ffffffffffffffffffffffffffffffffffffffff1681526020018360020160009054906101000a900473ffffffffffffffffffffffffffffffffffffffff1673ffffffffffffffffffffffffffffffffffffffff16815260200183600301548152602001836004018054611e58906138ba565b80601f0160208091040260200160405190810160405280929190818152602001828054611e84906138ba565b8015611ed15780601f10611ea657610100808354040283529160200191611ed1565b820191906000526020600020905b815481529060010190602001808311611eb457829003601f168201915b5050505050815260200142815260200160011515815260200160011515815250908060018154018082558091505060019003906000526020600020906006020160009091909190915060008201518160000160006101000a81548173ffffffffffffffffffffffffffffffffffffffff021916908373ffffffffffffffffffffffffffffffffffffffff16021790555060208201518160010160006101000a81548173ffffffffffffffffffffffffffffffffffffffff021916908373ffffffffffffffffffffffffffffffffffffffff160217905550604082015181600201556060820151816003019080519060200190611fce92919061294a565b506080820151816004015560a08201518160050160006101000a81548160ff02191690831515021790555060c08201518160050160016101000a81548160ff02191690831515021790555050508060020160009054906101000a900473ffffffffffffffffffffffffffffffffffffffff1673ffffffffffffffffffffffffffffffffffffffff166108fc82600301549081150290604051600060405180830381858888f19350505050158015612089573d6000803e3d6000fd5b508060020160009054906101000a900473ffffffffffffffffffffffffffffffffffffffff1673ffffffffffffffffffffffffffffffffffffffff168160010160009054906101000a900473ffffffffffffffffffffffffffffffffffffffff1673ffffffffffffffffffffffffffffffffffffffff16847f1890a8e821aa48199b0d651416a8206755c921457d51ded776d94c77a7bae90c8460030154856004014260405161213b93929190613629565b60405180910390a48060020160009054906101000a900473ffffffffffffffffffffffffffffffffffffffff1673ffffffffffffffffffffffffffffffffffffffff168160010160009054906101000a900473ffffffffffffffffffffffffffffffffffffffff1673ffffffffffffffffffffffffffffffffffffffff167f31507906cc7977c86c72fdfa6b8c7350c9ab3f30fcfdf741c1390454d6c2fa218360030154846004014260016040516121f69493929190613667565b60405180910390a3505050565b60606000600460008473ffffffffffffffffffffffffffffffffffffffff1673ffffffffffffffffffffffffffffffffffffffff16815260200190815260200160002080548060200260200160405190810160405280929190818152602001828054801561229057602002820191906000526020600020905b81548152602001906001019080831161227c575b505050505090506000815167ffffffffffffffff8111156122da577f4e487b7100000000000000000000000000000000000000000000000000000000600052604160045260246000fd5b60405190808252806020026020018201604052801561231357816020015b6123006128ce565b8152602001906001900390816122f85790505b50905060005b82518110156125a957600383828151811061235d577f4e487b7100000000000000000000000000000000000000000000000000000000600052603260045260246000fd5b60200260200101518154811061239c577f4e487b7100000000000000000000000000000000000000000000000000000000600052603260045260246000fd5b906000526020600020906008020160405180610120016040529081600082015481526020016001820160009054906101000a900473ffffffffffffffffffffffffffffffffffffffff1673ffffffffffffffffffffffffffffffffffffffff1673ffffffffffffffffffffffffffffffffffffffff1681526020016002820160009054906101000a900473ffffffffffffffffffffffffffffffffffffffff1673ffffffffffffffffffffffffffffffffffffffff1673ffffffffffffffffffffffffffffffffffffffff16815260200160038201548152602001600482018054612486906138ba565b80601f01602080910402602001604051908101604052809291908181526020018280546124b2906138ba565b80156124ff5780601f106124d4576101008083540402835291602001916124ff565b820191906000526020600020905b8154815290600101906020018083116124e257829003601f168201915b50505050508152602001600582015481526020016006820160009054906101000a900460ff161515151581526020016006820160019054906101000a900460ff1615151515815260200160078201548152505082828151811061258b577f4e487b7100000000000000000000000000000000000000000000000000000000600052603260045260246000fd5b602002602001018190525080806125a1906138ec565b915050612319565b508092505050919050565b600073ffffffffffffffffffffffffffffffffffffffff168373ffffffffffffffffffffffffffffffffffffffff161415612624576040517f08c379a000000000000000000000000000000000000000000000000000000000815260040161261b90613470565b60405180910390fd5b813414612666576040517f08c379a000000000000000000000000000000000000000000000000000000000815260040161265d90613430565b60405180910390fd5b600160008082825461267891906137c8565b9250508190555060026040518060e001604052803373ffffffffffffffffffffffffffffffffffffffff1681526020018573ffffffffffffffffffffffffffffffffffffffff16815260200184815260200183815260200142815260200160001515815260200160011515815250908060018154018082558091505060019003906000526020600020906006020160009091909190915060008201518160000160006101000a81548173ffffffffffffffffffffffffffffffffffffffff021916908373ffffffffffffffffffffffffffffffffffffffff16021790555060208201518160010160006101000a81548173ffffffffffffffffffffffffffffffffffffffff021916908373ffffffffffffffffffffffffffffffffffffffff1602179055506040820151816002015560608201518160030190805190602001906127c392919061294a565b506080820151816004015560a08201518160050160006101000a81548160ff02191690831515021790555060c08201518160050160016101000a81548160ff02191690831515021790555050508273ffffffffffffffffffffffffffffffffffffffff166108fc349081150290604051600060405180830381858888f19350505050158015612856573d6000803e3d6000fd5b508273ffffffffffffffffffffffffffffffffffffffff163373ffffffffffffffffffffffffffffffffffffffff167f31507906cc7977c86c72fdfa6b8c7350c9ab3f30fcfdf741c1390454d6c2fa2184844260006040516128bb94939291906135dd565b60405180910390a3505050565b60015481565b60405180610120016040528060008152602001600073ffffffffffffffffffffffffffffffffffffffff168152602001600073ffffffffffffffffffffffffffffffffffffffff168152602001600081526020016060815260200160008152602001600015158152602001600015158152602001600081525090565b828054612956906138ba565b90600052602060002090601f01602090048101928261297857600085556129bf565b82601f1061299157805160ff19168380011785556129bf565b828001600101855582156129bf579182015b828111156129be5782518255916020019190600101906129a3565b5b5090506129cc91906129d0565b5090565b5b808211156129e95760008160009055506001016129d1565b5090565b6000612a006129fb846136e4565b6136b3565b905082815260208101848484011115612a1857600080fd5b612a23848285613878565b509392505050565b600081359050612a3a816139d3565b92915050565b600081359050612a4f816139ea565b92915050565b600082601f830112612a6657600080fd5b8135612a768482602086016129ed565b91505092915050565b600081359050612a8e81613a01565b92915050565b600060208284031215612aa657600080fd5b6000612ab484828501612a2b565b91505092915050565b600080600060608486031215612ad257600080fd5b6000612ae086828701612a40565b9350506020612af186828701612a7f565b925050604084013567ffffffffffffffff811115612b0e57600080fd5b612b1a86828701612a55565b9150509250925092565b60008060008060808587031215612b3a57600080fd5b6000612b4887828801612a40565b9450506020612b5987828801612a7f565b935050604085013567ffffffffffffffff811115612b7657600080fd5b612b8287828801612a55565b9250506060612b9387828801612a7f565b91505092959194509250565b60008060408385031215612bb257600080fd5b6000612bc085828601612a2b565b9250506020612bd185828601612a7f565b9150509250929050565b600060208284031215612bed57600080fd5b6000612bfb84828501612a7f565b91505092915050565b6000612c10838361315c565b905092915050565b6000612c248383613221565b905092915050565b612c358161381e565b82525050565b612c448161381e565b82525050565b6000612c5582613749565b612c5f8185613784565b935083602082028501612c7185613714565b8060005b85811015612cad5784840389528151612c8e8582612c04565b9450612c998361376a565b925060208a01995050600181019050612c75565b50829750879550505050505092915050565b6000612cca82613754565b612cd48185613795565b935083602082028501612ce685613724565b8060005b85811015612d225784840389528151612d038582612c18565b9450612d0e83613777565b925060208a01995050600181019050612cea565b50829750879550505050505092915050565b612d3d81613842565b82525050565b612d4c81613842565b82525050565b6000612d5d8261375f565b612d6781856137a6565b9350612d77818560208601613887565b612d80816139c2565b840191505092915050565b6000612d968261375f565b612da081856137b7565b9350612db0818560208601613887565b612db9816139c2565b840191505092915050565b60008154612dd1816138ba565b612ddb81866137b7565b94506001821660008114612df65760018114612e0857612e3b565b60ff1983168652602086019350612e3b565b612e1185613734565b60005b83811015612e3357815481890152600182019150602081019050612e14565b808801955050505b50505092915050565b6000612e516024836137b7565b91507f5363686564756c65642074696d65206d75737420626520696e2074686520667560008301527f74757265000000000000000000000000000000000000000000000000000000006020830152604082019050919050565b6000612eb76026836137b7565b91507f4f6e6c7920746865206f776e65722063616e20706572666f726d20746869732060008301527f616374696f6e00000000000000000000000000000000000000000000000000006020830152604082019050919050565b6000612f1d601c836137b7565b91507f5472616e73616374696f6e20616c7265616479206578656375746564000000006000830152602082019050919050565b6000612f5d6019836137b7565b91507f5472616e73616374696f6e207761732063616e63656c6c6564000000000000006000830152602082019050919050565b6000612f9d6020836137b7565b91507f53656e742076616c7565206d757374206d617463682074686520616d6f756e746000830152602082019050919050565b6000612fdd6025836137b7565b91507f5472616e73616374696f6e2074696d6520686173206e6f74206265656e20726560008301527f61636865640000000000000000000000000000000000000000000000000000006020830152604082019050919050565b60006130436018836137b7565b91507f496e76616c6964207265636569766572206164647265737300000000000000006000830152602082019050919050565b6000613083601d836137b7565b91507f5472616e73616374696f6e20616c72656164792063616e63656c6c65640000006000830152602082019050919050565b60006130c36022836137b7565b91507f43616e6e6f742063616e63656c206578656375746564207472616e736163746960008301527f6f6e0000000000000000000000000000000000000000000000000000000000006020830152604082019050919050565b60006131296013836137b7565b91507f496e76616c6964207363686564756c65204944000000000000000000000000006000830152602082019050919050565b60006101208301600083015161317560008601826132bd565b5060208301516131886020860182612c2c565b50604083015161319b6040860182612c2c565b5060608301516131ae60608601826132bd565b50608083015184820360808601526131c68282612d52565b91505060a08301516131db60a08601826132bd565b5060c08301516131ee60c0860182612d34565b5060e083015161320160e0860182612d34565b506101008301516132166101008601826132bd565b508091505092915050565b600060e0830160008301516132396000860182612c2c565b50602083015161324c6020860182612c2c565b50604083015161325f60408601826132bd565b50606083015184820360608601526132778282612d52565b915050608083015161328c60808601826132bd565b5060a083015161329f60a0860182612d34565b5060c08301516132b260c0860182612d34565b508091505092915050565b6132c68161386e565b82525050565b6132d58161386e565b82525050565b600060e0820190506132f0600083018a612c3b565b6132fd6020830189612c3b565b61330a60408301886132cc565b818103606083015261331c8187612d8b565b905061332b60808301866132cc565b61333860a0830185612d43565b61334560c0830184612d43565b98975050505050505050565b6000602082019050818103600083015261336b8184612c4a565b905092915050565b6000602082019050818103600083015261338d8184612cbf565b905092915050565b60006020820190506133aa6000830184612d43565b92915050565b600060208201905081810360008301526133c981612e44565b9050919050565b600060208201905081810360008301526133e981612eaa565b9050919050565b6000602082019050818103600083015261340981612f10565b9050919050565b6000602082019050818103600083015261342981612f50565b9050919050565b6000602082019050818103600083015261344981612f90565b9050919050565b6000602082019050818103600083015261346981612fd0565b9050919050565b6000602082019050818103600083015261348981613036565b9050919050565b600060208201905081810360008301526134a981613076565b9050919050565b600060208201905081810360008301526134c9816130b6565b9050919050565b600060208201905081810360008301526134e98161311c565b9050919050565b600060208201905061350560008301846132cc565b92915050565b600061012082019050613521600083018c6132cc565b61352e602083018b612c3b565b61353b604083018a612c3b565b61354860608301896132cc565b818103608083015261355a8188612d8b565b905061356960a08301876132cc565b61357660c0830186612d43565b61358360e0830185612d43565b6135916101008301846132cc565b9a9950505050505050505050565b60006060820190506135b460008301866132cc565b81810360208301526135c68185612d8b565b90506135d560408301846132cc565b949350505050565b60006080820190506135f260008301876132cc565b81810360208301526136048186612d8b565b905061361360408301856132cc565b6136206060830184612d43565b95945050505050565b600060608201905061363e60008301866132cc565b81810360208301526136508185612dc4565b905061365f60408301846132cc565b949350505050565b600060808201905061367c60008301876132cc565b818103602083015261368e8186612dc4565b905061369d60408301856132cc565b6136aa6060830184612d43565b95945050505050565b6000604051905081810181811067ffffffffffffffff821117156136da576136d9613993565b5b8060405250919050565b600067ffffffffffffffff8211156136ff576136fe613993565b5b601f19601f8301169050602081019050919050565b6000819050602082019050919050565b6000819050602082019050919050565b60008190508160005260206000209050919050565b600081519050919050565b600081519050919050565b600081519050919050565b6000602082019050919050565b6000602082019050919050565b600082825260208201905092915050565b600082825260208201905092915050565b600082825260208201905092915050565b600082825260208201905092915050565b60006137d38261386e565b91506137de8361386e565b9250827fffffffffffffffffffffffffffffffffffffffffffffffffffffffffffffffff0382111561381357613812613935565b5b828201905092915050565b60006138298261384e565b9050919050565b600061383b8261384e565b9050919050565b60008115159050919050565b600073ffffffffffffffffffffffffffffffffffffffff82169050919050565b6000819050919050565b82818337600083830152505050565b60005b838110156138a557808201518184015260208101905061388a565b838111156138b4576000848401525b50505050565b600060028204905060018216806138d257607f821691505b602082108114156138e6576138e5613964565b5b50919050565b60006138f78261386e565b91507fffffffffffffffffffffffffffffffffffffffffffffffffffffffffffffffff82141561392a57613929613935565b5b600182019050919050565b7f4e487b7100000000000000000000000000000000000000000000000000000000600052601160045260246000fd5b7f4e487b7100000000000000000000000000000000000000000000000000000000600052602260045260246000fd5b7f4e487b7100000000000000000000000000000000000000000000000000000000600052604160045260246000fd5b6000601f19601f8301169050919050565b6139dc8161381e565b81146139e757600080fd5b50565b6139f381613830565b81146139fe57600080fd5b50565b613a0a8161386e565b8114613a1557600080fd5b5056fea264697066735822122075844d7fc402c49546dec1c402b03b312d1a1de0910ba06f7e6f5525888fe7e364736f6c63430008000033",
  "linkReferences": {},
  "deployedLinkReferences": {}
}